:100000000C943B000C9450000C9450000C94500045
:100010000C9450000C9450000C9450000C94500020
:100020000C9450000C9450000C9450000C94500010
:100030000C9450000C9450000C9450000C94500000
:100040000C9450000C9450000C9450000C945000F0
:100050000C9450000C9450000C9450000C945000E0
:100060000C9450000C945000556D69643A00005493
:10007000656D703A000011241FBECFEFD8E0DEBFDF
:10008000CDBF11E0A0E0B1E0E4E3F4E002C00590F0
:100090000D92A630B107D9F70E94EF000C94180218
:1000A0000C940000CF92DF92EF92FF920F931F9378
:1000B000CF93DF93FC01EB0197FF04C088279927BA
:1000C0008E1B9F0B7E0100E010E02AE0C22ED12C97
:1000D00098012F5F3F4FB6010E94E501805DD70177
:1000E0008D937D01CB01009711F08901F1CFF7FFCE
:1000F00007C0FE01E20FF31F8DE280832F5F3F4FA9
:10010000FE01E20FF31F1082FE0101900020E9F7CB
:100110003197EC1BFD0BCF010197EC0FFD1FDE01AA
:100120009D012C1B3D0B2817390734F42C9132917B
:100130003D9320830197F4CFDF91CF911F910F91D1
:10014000FF90EF90DF90CF900895611102C0289842
:1001500001C0289A9BB19F70282F207F922B9BB9BA
:1001600045E04A95F1F70000299A95E09A95F1F754
:100170000000299840EF4A95F1F72BB1922F9F701C
:1001800040E1849F90011124292B2BB995E09A9589
:10019000F1F70000299A45E04A95F1F70000299807
:1001A00090EF9A95F1F7611108C0843030F48FE335
:1001B0009FE10197F1F700C000000895CF93DF930E
:1001C000EC01FE018491882339F0FE01849161E005
:1001D0000E94A5002196F5CFDF91CF910895CF938E
:1001E000DF93CDB7DEB7AD970FB6F894DEBF0FBE85
:1001F000CDBF8FEF8AB984B9289829982FEF39EFAE
:1002000080E0215030408040E1F700C000008BB119
:100210008F7080628BB995E09A95F1F70000299A6A
:10022000E5E0EA95F1F700002998F0EFFA95F1F78B
:1002300060E088E20E94A50060E088E00E94A500DE
:1002400060E081E00E94A50060E08CE00E94A500D3
:1002500060E080E80E94A500DD24D394229A2A9AC7
:100260002FEF37EA81E6215030408040E1F700C0AF
:1002700000002A989FEFE9EFF0E09150E040F04055
:10028000E1F700C000002A9A25ED2A95F1F7000059
:1002900022982A9A8FE391E00197F1F700C00000BD
:1002A000EFE3F1E03197F1F700C00000CE010196D5
:1002B000FC0128E2F82EE92E1A9BFECF40E050E028
:1002C000BA011A9979C04F3151056105710510F0D5
:1002D000D08201C01082215031962111EDCFFE0154
:1002E000B996BF01BE2ECF2EDC0147E050E010E0F2
:1002F0002D91042E01C0220F0A94EAF7122B4150CF
:100300005109B0F7119308966817790769F719A58D
:100310008BA56B2D7C2D90E00E9452006F2D7E2DC1
:10032000812F90E00E94520060E071E08B2D9C2DA7
:100330000E940D0263E071E08F2D9E2D0E940D0240
:1003400060E081E00E94A50060E080E80E94A500D6
:100350008FE690E00E94DE0060E08CE80E94A5003D
:100360000B2D1C2DF80181918F01882321F061E074
:100370000E94A500F7CF60E080EC0E94A50088E60F
:1003800090E00E94DE0060E08DEC0E94A5000F2D41
:100390001E2DF80181918F01882321F061E00E94D8
:1003A000A500F7CFFFEF23ED30E3F15020403040C0
:1003B000E1F700C0000052CF4F5F5F4F6F4F7F4F9C
:1003C00035E03A95F1F700007CCF97FB072E16F445
:1003D000009407D077FD09D00E94F90107FC05D0F1
:1003E0003EF4909581959F4F0895709561957F4F4C
:1003F0000895AA1BBB1B51E107C0AA1FBB1FA6176C
:10040000B70710F0A61BB70B881F991F5A95A9F7BD
:1004100080959095BC01CD010895FB01DC010D9004
:100420000020E9F7119701900D920020E1F708955F
:04043000F894FFCF6E
:06043400DF43002500007B
:00000001FF
